{
  "contractName": "InactivityContract",
  "abi": [
    {
      "constant": true,
      "inputs": [
        {
          "name": "",
          "type": "uint256"
        }
      ],
      "name": "fbUsers",
      "outputs": [
        {
          "name": "",
          "type": "string"
        }
      ],
      "payable": false,
      "stateMutability": "view",
      "type": "function"
    },
    {
      "constant": true,
      "inputs": [],
      "name": "nbActiveUsers",
      "outputs": [
        {
          "name": "",
          "type": "uint256"
        }
      ],
      "payable": false,
      "stateMutability": "view",
      "type": "function"
    },
    {
      "inputs": [
        {
          "name": "_link",
          "type": "address"
        }
      ],
      "payable": true,
      "stateMutability": "payable",
      "type": "constructor"
    },
    {
      "anonymous": false,
      "inputs": [
        {
          "indexed": true,
          "name": "id",
          "type": "bytes32"
        }
      ],
      "name": "ChainlinkRequested",
      "type": "event"
    },
    {
      "anonymous": false,
      "inputs": [
        {
          "indexed": true,
          "name": "id",
          "type": "bytes32"
        }
      ],
      "name": "ChainlinkFulfilled",
      "type": "event"
    },
    {
      "anonymous": false,
      "inputs": [
        {
          "indexed": true,
          "name": "id",
          "type": "bytes32"
        }
      ],
      "name": "ChainlinkCancelled",
      "type": "event"
    },
    {
      "constant": true,
      "inputs": [
        {
          "name": "clientFbId",
          "type": "string"
        }
      ],
      "name": "getFbUser",
      "outputs": [
        {
          "name": "",
          "type": "bool"
        },
        {
          "name": "",
          "type": "uint256"
        },
        {
          "name": "",
          "type": "uint256"
        },
        {
          "name": "",
          "type": "uint256"
        },
        {
          "name": "",
          "type": "bool"
        }
      ],
      "payable": false,
      "stateMutability": "view",
      "type": "function"
    },
    {
      "constant": true,
      "inputs": [],
      "name": "getContractBalance",
      "outputs": [
        {
          "name": "",
          "type": "uint256"
        }
      ],
      "payable": false,
      "stateMutability": "view",
      "type": "function"
    },
    {
      "constant": true,
      "inputs": [],
      "name": "getChainlinkToken",
      "outputs": [
        {
          "name": "",
          "type": "address"
        }
      ],
      "payable": false,
      "stateMutability": "view",
      "type": "function"
    },
    {
      "constant": false,
      "inputs": [
        {
          "name": "_clientFbId",
          "type": "string"
        },
        {
          "name": "_encryptedFbAccessToken",
          "type": "string"
        }
      ],
      "name": "registerUser",
      "outputs": [
        {
          "name": "requestId",
          "type": "bytes32"
        }
      ],
      "payable": true,
      "stateMutability": "payable",
      "type": "function"
    },
    {
      "constant": false,
      "inputs": [
        {
          "name": "_requestId",
          "type": "bytes32"
        },
        {
          "name": "_latestActivity",
          "type": "uint256"
        }
      ],
      "name": "fulfillRegistration",
      "outputs": [],
      "payable": false,
      "stateMutability": "nonpayable",
      "type": "function"
    },
    {
      "constant": false,
      "inputs": [
        {
          "name": "_clientFbId",
          "type": "string"
        },
        {
          "name": "_encryptedFbAccessToken",
          "type": "string"
        }
      ],
      "name": "updateUser",
      "outputs": [
        {
          "name": "requestId",
          "type": "bytes32"
        }
      ],
      "payable": false,
      "stateMutability": "nonpayable",
      "type": "function"
    },
    {
      "constant": false,
      "inputs": [
        {
          "name": "_requestId",
          "type": "bytes32"
        },
        {
          "name": "_latestActivity",
          "type": "uint256"
        }
      ],
      "name": "fulfillUpdate",
      "outputs": [],
      "payable": false,
      "stateMutability": "nonpayable",
      "type": "function"
    }
  ],
  "bytecode": "0x6080604052600160045573d59fe7bb8307601b91aa703e20ff6b12141f2c3e600660006101000a81548173ffffffffffffffffffffffffffffffffffffffff021916908373ffffffffffffffffffffffffffffffffffffffff1602179055507f3430643865383162613931653461623762383039633630313439363332316261600102600790600019169055670de0b6b3a76400006008556000600955604051602080620023cd83398101806040528101908080519060200190929190505050600073ffffffffffffffffffffffffffffffffffffffff168173ffffffffffffffffffffffffffffffffffffffff16141562000114576200010e62000136640100000000026401000000009004565b6200012f565b6200012e8162000207640100000000026401000000009004565b5b506200024b565b6200020573c89bd4e1632d3a43cb03aaad5262cbe4038bc57173ffffffffffffffffffffffffffffffffffffffff166338cc48316040518163ffffffff167c0100000000000000000000000000000000000000000000000000000000028152600401602060405180830381600087803b158015620001b357600080fd5b505af1158015620001c8573d6000803e3d6000fd5b505050506040513d6020811015620001df57600080fd5b810190808051906020019092919050505062000207640100000000026401000000009004565b565b80600260006101000a81548173ffffffffffffffffffffffffffffffffffffffff021916908373ffffffffffffffffffffffffffffffffffffffff16021790555050565b612172806200025b6000396000f300608060405260043610610099576000357c0100000000000000000000000000000000000000000000000000000000900463ffffffff168063165d35e11461009e5780631d2e4afd146100f55780635949495a146101b35780636830e15b146101ee5780636f9fb98a14610294578063870f18bd146102bf5780638c3ce1f4146102fa578063dd4a242514610325578063e9c69052146103f0575b600080fd5b3480156100aa57600080fd5b506100b3610491565b604051808273ffffffffffffffffffffffffffffffffffffffff1673ffffffffffffffffffffffffffffffffffffffff16815260200191505060405180910390f35b610195600480360381019080803590602001908201803590602001908080601f0160208091040260200160405190810160405280939291908181526020018383808284378201915050505050509192919290803590602001908201803590602001908080601f01602080910402602001604051908101604052809392919081815260200183838082843782019150505050505091929192905050506104a0565b60405180826000191660001916815260200191505060405180910390f35b3480156101bf57600080fd5b506101ec6004803603810190808035600019169060200190929190803590602001909291905050506106ff565b005b3480156101fa57600080fd5b5061021960048036038101908080359060200190929190505050610989565b6040518080602001828103825283818151815260200191508051906020019080838360005b8381101561025957808201518184015260208101905061023e565b50505050905090810190601f1680156102865780820380516001836020036101000a031916815260200191505b509250505060405180910390f35b3480156102a057600080fd5b506102a9610a44565b6040518082815260200191505060405180910390f35b3480156102cb57600080fd5b506102f8600480360381019080803560001916906020019092919080359060200190929190505050610a63565b005b34801561030657600080fd5b5061030f610f0a565b6040518082815260200191505060405180910390f35b34801561033157600080fd5b506103d2600480360381019080803590602001908201803590602001908080601f0160208091040260200160405190810160405280939291908181526020018383808284378201915050505050509192919290803590602001908201803590602001908080601f0160208091040260200160405190810160405280939291908181526020018383808284378201915050505050509192919290505050610f10565b60405180826000191660001916815260200191505060405180910390f35b3480156103fc57600080fd5b50610457600480360381019080803590602001908201803590602001908080601f016020809104026020016040519081016040528093929190818152602001838380828437820191505050505050919291929050505061117e565b6040518086151515158152602001858152602001848152602001838152602001821515151581526020019550505050505060405180910390f35b600061049b61123b565b905090565b60006104aa611fb7565b60001515600c856040518082805190602001908083835b6020831015156104e657805182526020820191506020810190506020830392506104c1565b6001836020036101000a038019825116818451168082178552505050505050905001915050908152602001604051809103902060040160019054906101000a900460ff16151514151561053857600080fd5b60003411151561054757600080fd5b61057760075430635949495a7c010000000000000000000000000000000000000000000000000000000002611265565b90506105f86040805190810160405280600881526020017f636f7079506174680000000000000000000000000000000000000000000000008152506040805190810160405280600681526020017f6c61746573740000000000000000000000000000000000000000000000000000815250836112969092919063ffffffff16565b6106426040805190810160405280600881526020017f636c69656e74496400000000000000000000000000000000000000000000000081525085836112969092919063ffffffff16565b61068c6040805190810160405280601481526020017f656e63727970746564416363657373546f6b656e00000000000000000000000081525084836112969092919063ffffffff16565b6106bb600660009054906101000a900473ffffffffffffffffffffffffffffffffffffffff16826008546112c9565b915083600a6000846000191660001916815260200190815260200160002090805190602001906106ec929190612025565b506106f8843334611655565b5092915050565b6000808360056000826000191660001916815260200190815260200160002060009054906101000a900473ffffffffffffffffffffffffffffffffffffffff1673ffffffffffffffffffffffffffffffffffffffff163373ffffffffffffffffffffffffffffffffffffffff16141515610807576040517f08c379a00000000000000000000000000000000000000000000000000000000081526004018080602001828103825260288152602001807f536f75726365206d75737420626520746865206f7261636c65206f662074686581526020017f207265717565737400000000000000000000000000000000000000000000000081525060400191505060405180910390fd5b60056000826000191660001916815260200190815260200160002060006101000a81549073ffffffffffffffffffffffffffffffffffffffff021916905580600019167f7cc135e0cebb02c3480ae5d74d377283180a2601f8f644edf7987b009316c63a60405160405180910390a2600a600086600019166000191681526020019081526020016000209250600c8360405180828054600181600116156101000203166002900480156108f15780601f106108cf5761010080835404028352918201916108f1565b820191906000526020600020905b8154815290600101906020018083116108dd575b505091505090815260200160405180910390209150600a60008660001916600019168152602001908152602001600020600061092d91906120a5565b61094261012c426118c790919063ffffffff16565b826002018190555083826003018190555060018260040160006101000a81548160ff0219169083151502179055506009600081548092919060010191905055505050505050565b600b8181548110151561099857fe5b906000526020600020016000915090508054600181600116156101000203166002900480601f016020809104026020016040519081016040528092919081815260200182805460018160011615610100020316600290048015610a3c5780601f10610a1157610100808354040283529160200191610a3c565b820191906000526020600020905b815481529060010190602001808311610a1f57829003601f168201915b505050505081565b60003073ffffffffffffffffffffffffffffffffffffffff1631905090565b6000806000808560056000826000191660001916815260200190815260200160002060009054906101000a900473ffffffffffffffffffffffffffffffffffffffff1673ffffffffffffffffffffffffffffffffffffffff163373ffffffffffffffffffffffffffffffffffffffff16141515610b6e576040517f08c379a00000000000000000000000000000000000000000000000000000000081526004018080602001828103825260288152602001807f536f75726365206d75737420626520746865206f7261636c65206f662074686581526020017f207265717565737400000000000000000000000000000000000000000000000081525060400191505060405180910390fd5b60056000826000191660001916815260200190815260200160002060006101000a81549073ffffffffffffffffffffffffffffffffffffffff021916905580600019167f7cc135e0cebb02c3480ae5d74d377283180a2601f8f644edf7987b009316c63a60405160405180910390a2600a600088600019166000191681526020019081526020016000209450600c856040518082805460018160011615610100020316600290048015610c585780601f10610c36576101008083540402835291820191610c58565b820191906000526020600020905b815481529060010190602001808311610c44575b505091505090815260200160405180910390209350600a600088600019166000191681526020019081526020016000206000610c9491906120a5565b8360030154861115610e535760008460040160006101000a81548160ff0219169083151502179055506009548460010154811515610cce57fe5b049250600091505b600b80549050821015610e315760011515600c600b84815481101515610cf857fe5b906000526020600020016040518082805460018160011615610100020316600290048015610d5d5780601f10610d3b576101008083540402835291820191610d5d565b820191906000526020600020905b815481529060010190602001808311610d49575b5050915050908152602001604051809103902060040160009054906101000a900460ff1615151415610e245782600c600b84815481101515610d9b57fe5b906000526020600020016040518082805460018160011615610100020316600290048015610e005780601f10610dde576101008083540402835291820191610e00565b820191906000526020600020905b815481529060010190602001808311610dec575b50509150509081526020016040518091039020600101600082825401925050819055505b8180600101925050610cd6565b6000846001018190555060096000815480929190600190039190505550610f01565b836002015442101515610f00578360000160009054906101000a900473ffffffffffffffffffffffffffffffffffffffff1673ffffffffffffffffffffffffffffffffffffffff166108fc85600101549081150290604051600060405180830381858888f19350505050158015610ece573d6000803e3d6000fd5b5060008460040160006101000a81548160ff021916908315150217905550600960008154809291906001900391905055505b5b50505050505050565b60095481565b600080610f1b611fb7565b600c856040518082805190602001908083835b602083101515610f535780518252602082019150602081019050602083039250610f2e565b6001836020036101000a03801982511681845116808217855250505050505090500191505090815260200160405180910390209150600115158260040160019054906101000a900460ff161515141515610fac57600080fd5b600115158260040160009054906101000a900460ff161515141515610fd057600080fd5b6110006007543063870f18bd7c010000000000000000000000000000000000000000000000000000000002611265565b90506110816040805190810160405280600881526020017f636f7079506174680000000000000000000000000000000000000000000000008152506040805190810160405280600681526020017f6c61746573740000000000000000000000000000000000000000000000000000815250836112969092919063ffffffff16565b6110cb6040805190810160405280600881526020017f636c69656e74496400000000000000000000000000000000000000000000000081525086836112969092919063ffffffff16565b6111156040805190810160405280601481526020017f656e63727970746564416363657373546f6b656e00000000000000000000000081525085836112969092919063ffffffff16565b611144600660009054906101000a900473ffffffffffffffffffffffffffffffffffffffff16826008546112c9565b925084600a600085600019166000191681526020019081526020016000209080519060200190611175929190612025565b50505092915050565b600080600080600080600c876040518082805190602001908083835b6020831015156111bf578051825260208201915060208101905060208303925061119a565b6001836020036101000a038019825116818451168082178552505050505050905001915050908152602001604051809103902090508060040160019054906101000a900460ff168160010154826002015483600301548460040160009054906101000a900460ff16955095509550955095505091939590929450565b6000600260009054906101000a900473ffffffffffffffffffffffffffffffffffffffff16905090565b61126d611fb7565b611275611fb7565b61128c858585846118e3909392919063ffffffff16565b9150509392505050565b6112ad82846080015161199d90919063ffffffff16565b6112c481846080015161199d90919063ffffffff16565b505050565b600030600454604051602001808373ffffffffffffffffffffffffffffffffffffffff1673ffffffffffffffffffffffffffffffffffffffff166c01000000000000000000000000028152601401828152602001925050506040516020818303038152906040526040518082805190602001908083835b6020831015156113655780518252602082019150602081019050602083039250611340565b6001836020036101000a038019825116818451168082178552505050505050905001915050604051809103902090506004548360600181815250508360056000836000191660001916815260200190815260200160002060006101000a81548173ffffffffffffffffffffffffffffffffffffffff021916908373ffffffffffffffffffffffffffffffffffffffff16021790555080600019167fb5e6e01e79f91267dc17b4e6314d5d4d03593d2ceee0fbb452b750bd70ea5af960405160405180910390a2600260009054906101000a900473ffffffffffffffffffffffffffffffffffffffff1673ffffffffffffffffffffffffffffffffffffffff16634000aea08584611474876119c2565b6040518463ffffffff167c0100000000000000000000000000000000000000000000000000000000028152600401808473ffffffffffffffffffffffffffffffffffffffff1673ffffffffffffffffffffffffffffffffffffffff16815260200183815260200180602001828103825283818151815260200191508051906020019080838360005b838110156115175780820151818401526020810190506114fc565b50505050905090810190601f1680156115445780820380516001836020036101000a031916815260200191505b50945050505050602060405180830381600087803b15801561156557600080fd5b505af1158015611579573d6000803e3d6000fd5b505050506040513d602081101561158f57600080fd5b8101908080519060200190929190505050151561163a576040517f08c379a00000000000000000000000000000000000000000000000000000000081526004018080602001828103825260238152602001807f756e61626c6520746f207472616e73666572416e6443616c6c20746f206f726181526020017f636c65000000000000000000000000000000000000000000000000000000000081525060400191505060405180910390fd5b60016004600082825401925050819055508090509392505050565b81600c846040518082805190602001908083835b60208310151561168e5780518252602082019150602081019050602083039250611669565b6001836020036101000a038019825116818451168082178552505050505050905001915050908152602001604051809103902060000160006101000a81548173ffffffffffffffffffffffffffffffffffffffff021916908373ffffffffffffffffffffffffffffffffffffffff16021790555080600c846040518082805190602001908083835b60208310151561173b5780518252602082019150602081019050602083039250611716565b6001836020036101000a0380198251168184511680821785525050505050509050019150509081526020016040518091039020600101819055506000600c846040518082805190602001908083835b6020831015156117af578051825260208201915060208101905060208303925061178a565b6001836020036101000a038019825116818451168082178552505050505050905001915050908152602001604051809103902060040160006101000a81548160ff0219169083151502179055506001600c846040518082805190602001908083835b6020831015156118365780518252602082019150602081019050602083039250611811565b6001836020036101000a038019825116818451168082178552505050505050905001915050908152602001604051809103902060040160016101000a81548160ff021916908315150217905550600b8390806001815401808255809150509060018203906000526020600020016000909192909190915090805190602001906118c0929190612025565b5050505050565b600081830190508281101515156118da57fe5b80905092915050565b6118eb611fb7565b6118fb8560800151610100611bed565b50838560000190600019169081600019168152505082856020019073ffffffffffffffffffffffffffffffffffffffff16908173ffffffffffffffffffffffffffffffffffffffff16815250508185604001907bffffffffffffffffffffffffffffffffffffffffffffffffffffffff191690817bffffffffffffffffffffffffffffffffffffffffffffffffffffffff191681525050849050949350505050565b6119aa8260038351611c47565b6119bd8183611da590919063ffffffff16565b505050565b6060600360009054906101000a900473ffffffffffffffffffffffffffffffffffffffff1673ffffffffffffffffffffffffffffffffffffffff16634042994690507c01000000000000000000000000000000000000000000000000000000000260008084600001518560200151866040015187606001516001896080015160000151604051602401808973ffffffffffffffffffffffffffffffffffffffff1673ffffffffffffffffffffffffffffffffffffffff16815260200188815260200187600019166000191681526020018673ffffffffffffffffffffffffffffffffffffffff1673ffffffffffffffffffffffffffffffffffffffff168152602001857bffffffffffffffffffffffffffffffffffffffffffffffffffffffff19167bffffffffffffffffffffffffffffffffffffffffffffffffffffffff1916815260200184815260200183815260200180602001828103825283818151815260200191508051906020019080838360005b83811015611b50578082015181840152602081019050611b35565b50505050905090810190601f168015611b7d5780820380516001836020036101000a031916815260200191505b509950505050505050505050604051602081830303815290604052907bffffffffffffffffffffffffffffffffffffffffffffffffffffffff19166020820180517bffffffffffffffffffffffffffffffffffffffffffffffffffffffff83818316178352505050509050919050565b611bf56120ed565b6000602083811515611c0357fe5b06141515611c2057602082811515611c1757fe5b06602003820191505b81836020018181525050604051808452600081528281016020016040525082905092915050565b601781111515611c7957611c738160058460ff169060020a0260ff161784611dc790919063ffffffff16565b50611da0565b60ff81111515611cc057611ca3601860058460ff169060020a021784611dc790919063ffffffff16565b50611cba81600185611de79092919063ffffffff16565b50611d9f565b61ffff81111515611d0857611ceb601960058460ff169060020a021784611dc790919063ffffffff16565b50611d0281600285611de79092919063ffffffff16565b50611d9e565b63ffffffff81111515611d5257611d35601a60058460ff169060020a021784611dc790919063ffffffff16565b50611d4c81600485611de79092919063ffffffff16565b50611d9d565b67ffffffffffffffff81111515611d9c57611d83601b60058460ff169060020a021784611dc790919063ffffffff16565b50611d9a81600885611de79092919063ffffffff16565b505b5b5b5b5b505050565b611dad6120ed565b611dbf83846000015151848551611e09565b905092915050565b611dcf6120ed565b611ddf8384600001515184611ec6565b905092915050565b611def6120ed565b611e00848560000151518585611f16565b90509392505050565b611e116120ed565b600080600085518511151515611e2657600080fd5b87602001518588011115611e5157611e50886002611e4a8b602001518b8a01611f77565b02611f93565b5b875180518860208301019450808988011115611e6d5788870182525b60208801935050505b602085101515611e9b5781518352602083019250602082019150602085039450611e76565b6001856020036101000a03905080198251168184511681811785525050879350505050949350505050565b611ece6120ed565b836020015183101515611eed57611eec846002866020015102611f93565b5b8351805160208583010184815381861415611f09576001820183525b5050508390509392505050565b611f1e6120ed565b600085602001518584011115611f3e57611f3d86600287860102611f93565b5b6001836101000a0390508551838682010185831982511617815281518588011115611f695784870182525b505085915050949350505050565b600081831115611f8957829050611f8d565b8190505b92915050565b606082600001519050611fa68383611bed565b50611fb18382611da5565b50505050565b60c06040519081016040528060008019168152602001600073ffffffffffffffffffffffffffffffffffffffff16815260200160007bffffffffffffffffffffffffffffffffffffffffffffffffffffffff191681526020016000815260200161201f612107565b81525090565b828054600181600116156101000203166002900490600052602060002090601f016020900481019282601f1061206657805160ff1916838001178555612094565b82800160010185558215612094579182015b82811115612093578251825591602001919060010190612078565b5b5090506120a19190612121565b5090565b50805460018160011615610100020316600290046000825580601f106120cb57506120ea565b601f0160209004906000526020600020908101906120e99190612121565b5b50565b604080519081016040528060608152602001600081525090565b604080519081016040528060608152602001600081525090565b61214391905b8082111561213f576000816000905550600101612127565b5090565b905600a165627a7a72305820bcf1f5e2180c342bcfc688f8f70cf10b901edaea11ed4a70283697aa1bb95b3e0029",
  "source": "pragma solidity 0.4.24;\n\nimport \"chainlink/contracts/ChainlinkClient.sol\";\n\ncontract InactivityContract is ChainlinkClient {\n  //address ORACLE = 0xa1de4e226648c15f4bd514219f054aafee4b78d8;\n  //bytes32 JOB_ID = 0x3935316435306135643430383462666539613664623830373730626639666564;\n  address ORACLE = 0xd59fe7bb8307601b91aa703e20ff6b12141f2c3e;\n  bytes32 JOB_ID = 0x3430643865383162613931653461623762383039633630313439363332316261;\n  uint256 PAYMENT = 1000000000000000000;\n\n  struct FbUser {\n    address clientAddress;\n    uint256 clientBalance;\n    uint256 clientEndAt;\n    uint256 clientLatestSaved;\n    bool activeContract;\n    bool exists;\n  }\n\n  // Number of active users in the contract\n  uint public nbActiveUsers = 0;\n  // Mapping of requestId => clientFbId\n  mapping (bytes32 => string) clientFbIdForRequestId;\n  // List of clientFbIds\n  string[] public fbUsers;\n  // Mapping of clientFbId => FbUser\n  mapping (string => FbUser) fbUserStructs;\n\n  // Accessor to a single user\n  function getFbUser(string clientFbId) public view returns(bool, uint256, uint256, uint256, bool) {\n    FbUser u = fbUserStructs[clientFbId];\n    return (u.exists, u.clientBalance, u.clientEndAt, u.clientLatestSaved, u.activeContract);\n  }\n\n  // Accessor to a single user\n  function getContractBalance() public view returns(uint256) {\n    return address(this).balance;\n  }\n\n  function createFbUser(\n    string clientFbId,\n    address clientAddress,\n    uint clientBalance\n  ) private {\n    fbUserStructs[clientFbId].clientAddress = clientAddress;\n    fbUserStructs[clientFbId].clientBalance = clientBalance;\n    fbUserStructs[clientFbId].activeContract = false;\n    fbUserStructs[clientFbId].exists = true;\n    fbUsers.push(clientFbId);\n  }\n\n  constructor(address _link) public payable {\n    if (_link == address(0)) {\n      setPublicChainlinkToken();\n    } else {\n      setChainlinkToken(_link);\n    }\n  }\n\n  function getChainlinkToken() public view returns (address) {\n    return chainlinkTokenAddress();\n  }\n\n  function registerUser(\n    string _clientFbId,\n    string _encryptedFbAccessToken\n  )\n    public\n    payable\n    returns (bytes32 requestId)\n  {\n    require(fbUserStructs[_clientFbId].exists == false);\n    require(msg.value > 0);\n\n    Chainlink.Request memory req = buildChainlinkRequest(JOB_ID, this, this.fulfillRegistration.selector);\n    req.add(\"copyPath\", \"latest\");\n    req.add(\"clientId\", _clientFbId);\n    req.add(\"encryptedAccessToken\", _encryptedFbAccessToken);\n\n    requestId = sendChainlinkRequestTo(ORACLE, req, PAYMENT);\n    clientFbIdForRequestId[requestId] = _clientFbId;\n\n    createFbUser(\n      _clientFbId,\n      msg.sender,\n      msg.value\n    );\n  }\n\n  function fulfillRegistration(bytes32 _requestId, uint256 _latestActivity)\n    public\n    recordChainlinkFulfillment(_requestId)\n  {\n    // Use the request id to retrive the user struct in 2 steps\n    string clientFbId = clientFbIdForRequestId[_requestId];\n    FbUser user = fbUserStructs[clientFbId];\n\n    // Remove the clientFbIdForRequestId mapping since we don't need it anymore\n    delete(clientFbIdForRequestId[_requestId]);\n\n    // Store the rest of the info\n    user.clientEndAt = block.timestamp.add(5 minutes);\n    user.clientLatestSaved = _latestActivity;\n    user.activeContract = true;\n    nbActiveUsers++;\n  }\n\n  function updateUser(\n    string _clientFbId,\n    string _encryptedFbAccessToken\n  )\n    public\n    returns (bytes32 requestId)\n  {\n    FbUser user = fbUserStructs[_clientFbId];\n    require(user.exists == true);\n    require(user.activeContract == true);\n\n    Chainlink.Request memory req = buildChainlinkRequest(JOB_ID, this, this.fulfillUpdate.selector);\n    req.add(\"copyPath\", \"latest\");\n    req.add(\"clientId\", _clientFbId);\n    req.add(\"encryptedAccessToken\", _encryptedFbAccessToken);\n\n    requestId = sendChainlinkRequestTo(ORACLE, req, PAYMENT);\n    clientFbIdForRequestId[requestId] = _clientFbId;\n  }\n\n  function fulfillUpdate(bytes32 _requestId, uint256 _latestActivity)\n    public\n    recordChainlinkFulfillment(_requestId)\n  {\n    // Use the request id to retrive the user struct in 2 steps\n    string clientFbId = clientFbIdForRequestId[_requestId];\n    FbUser user = fbUserStructs[clientFbId];\n\n    // Remove the clientFbIdForRequestId mapping since we don't need it anymore\n    delete(clientFbIdForRequestId[_requestId]);\n\n    if (_latestActivity > user.clientLatestSaved) { // user has more recent activity\n      user.activeContract = false;\n\n      uint gainPerUser = user.clientBalance / nbActiveUsers; // his collateral is redistributed to active users\n\n      for (uint i=0; i<fbUsers.length; i++) {\n        if (fbUserStructs[fbUsers[i]].activeContract == true) {\n          fbUserStructs[fbUsers[i]].clientBalance += gainPerUser;\n        }\n      }\n\n      user.clientBalance = 0;\n      // We decrement this number after redistributing so we don't risk a division by 0\n      // The contract therefore always keep \"one fraction\" of the redistribution to itself\n      nbActiveUsers--;\n    } else if (block.timestamp >= user.clientEndAt) { // contract is over\n      user.clientAddress.transfer(user.clientBalance); // he gets his balance back\n      user.activeContract = false;\n      nbActiveUsers--;\n    }\n  }\n}\n",
  "sourcePath": "/Users/raphaelpapillon/Projects/smart-inactivity-agreement/InactivityContract/contracts/InactivityContract.sol",
  "compiler": {
    "name": "solc",
    "version": "0.4.24+commit.e67f0147.Emscripten.clang"
  },
  "schemaVersion": "3.0.16",
  "updatedAt": "2019-11-01T04:58:38.431Z",
  "devdoc": {
    "methods": {}
  },
  "userdoc": {
    "methods": {}
  }
}